:100000000C9436000C945E000C945E000C945E0020
:100010000C945E000C945E000C945E000C945E00E8
:100020000C945E000C945E000C945E000C945E00D8
:100030000C945E000C945E000C945E000C945E00C8
:100040000C9497030C945E000C9461050C9493053A
:100050000C945E000C945E000C945E000C945E00A8
:100060000C945E000C945E008601C30511241FBE33
:10007000CFEFD8E0DEBFCDBF11E0A0E0B1E0ECEA09
:10008000F5E102C005900D92A632B107D9F721E043
:10009000A6E2B1E001C01D92A03EB207E1F710E078
:1000A000CCE6D0E004C02297FE010E94D00AC836F8
:1000B000D107C9F70E94EA070C94D40A0C940000F7
:1000C00026E040E855E260E070E083E491E00C94C3
:1000D000FF042F923F924F925F926F927F928F9286
:1000E0009F92AF92BF92CF92DF92EF92FF920F93C7
:1000F0001F93CF93DF93CDB7DEB728970FB6F89451
:10010000DEBF0FBECDBF84E1282E312C1D821E82A2
:100110001F82188619821A821B821C82C12CD12C44
:1001200076014601570106E211E02AE231E04EE293
:1001300051E062E371E086E391E00E94CC0120E0AF
:1001400030E040E351E460913201709133018091DD
:100150003401909135010E94B1099B01AC01C501A8
:10016000B4010E94FA074B015C0120E030E040EA54
:1001700050E460912E0170912F0180913001909197
:1001800031010E94B1099B01AC01C701B6010E9477
:10019000FA076B017C0120E030E040E351E460911C
:1001A0002A0170912B0180912C0190912D010E94C8
:1001B000B10920E030E040EA50E40E94B1092B018F
:1001C0003C0120E030E0A9010E94AD09A3019201A9
:1001D00018160CF0505869817A818B819C810E949D
:1001E000FA0769837A838B839C8340902601509021
:1001F0002701609028017090290120E030E0A901DA
:10020000C301B2010E94AD09A301920118160CF0BE
:1002100050586D817E818F8198850E94FA076D8389
:100220007E838F83988781E0281A310809F07BCF7D
:1002300020E030E040EA51E4C501B4010E946208C8
:10024000AB01BC0122E030E083E491E00E94D507DD
:1002500060E071E083E491E00E94440620E030E039
:1002600040EA51E4C701B6010E946208AB01BC013B
:1002700022E030E083E491E00E94D50760E071E085
:1002800083E491E00E94440620E030E040EA51E43B
:1002900069817A818B819C810E946208AB01BC01DB
:1002A00022E030E083E491E00E94D50760E071E055
:1002B00083E491E00E94440620E030E040EA51E40B
:1002C0006D817E818F8198850E946208AB01BC019F
:1002D00022E030E083E491E028960FB6F894DEBF88
:1002E0000FBECDBFDF91CF911F910F91FF90EF9087
:1002F000DF90CF90BF90AF909F908F907F906F9046
:100300005F904F903F902F900C94D70741E050E0C2
:1003100060E070E086E391E00C949C01EAE7F0E095
:10032000808180688083808186608083ECE7F0E054
:100330008081806480830895EF92FF920F931F93D2
:10034000CF93DF93EC017B018A010E948E01F98239
:10035000E8821B830A83DF91CF911F910F91FF9059
:10036000EF90089580917C006F70807F682B609380
:100370007C0080917A00806480937A0080917A007A
:1003800084FFFCCF80917A00806180937A00809115
:1003900078009091790008952F923F924F925F924A
:1003A0006F927F928F929F92AF92BF92CF92DF9285
:1003B000EF92FF920F931F93CF93DF93CDB7DEB7EA
:1003C000C453D3400FB6F894DEBF0FBECDBF1C019F
:1003D000C75DDC4F79836883C952D340C55DDC4F6C
:1003E00059834883CB52D340C35DDC4F3983288384
:1003F000CD52D340C15DDC4F19830883CF52D34027
:100400008E010F561E4FCD5DDC4F19830883C352FA
:10041000D34080E991E0D801FC011D923197E9F7C2
:1004200000591140D801FC011D923197E9F79E0156
:100430002F5D3C4FCF5DDC4F39832883C152D340C1
:100440009801CE018F569E4F3C01C12CD12C7601D4
:10045000812C912C5401D1016C91C101CF5CDC4FF6
:100460002883C153D340CE5CDC4F3883C253D34082
:100470000E94B2012C01F301819391933F01D101BC
:1004800012966C91C1010E94B201CF5CDC4F2881B1
:10049000C153D340CE5CDC4F3881C253D340F90105
:1004A000819391939F01A201662757FD6095762F56
:1004B000840E951EA61EB71EAA2797FDA095BA2FDB
:1004C000C80ED91EEA1EFB1ECF5DDC4F88819981C4
:1004D000C152D3406816790609F0BDCF28EC422EF0
:1004E000512C612C712CC501B401A30192010E9411
:1004F0006F0A1901C701B601A30192010E946F0A98
:100500006901CD5CDC4F19830883C353D340DE01FE
:10051000AF56BE4F7D01CB5DDC4F188219821A8227
:100520001B82C552D340812C912C5401412C512C5B
:100530003201F7014081518142195309D7014D938E
:100540005D937D01CD5CDC4FA881B981C353D3405D
:10055000ED91FC911197EC19FD09ED93FD93CD5CA4
:10056000DC4FB983A883C353D3409A01DA010E94B8
:10057000B00A860E971EA81EB91E9F01DF010E94B9
:10058000B00ACB5DDC4F088119812A813B81C552BD
:10059000D340060F171F281F391FCB5DDC4F088380
:1005A00019832A833B83C552D3409A010E94B00A23
:1005B000460E571E681E791ECF5DDC4F08811981DB
:1005C000C152D340E016F10609F0B3CF98ECC92E22
:1005D000D12CE12CF12CC301B201A70196010E949C
:1005E000910ACA01B9010E94FD0820E030E040EA0A
:1005F00050E40E94B10920E030EC4FE754E40E943F
:10060000620820E030E040EA50E40E94B10920E0B6
:1006100030EC4FE754E40E9462082B013C01C50115
:10062000B401A70196010E94910ACA01B9010E9472
:10063000FD080E94180A20E030E040EA50E40E94E1
:10064000B10920E030EC4FE754E40E9462084B010E
:100650005C01CB5DDC4F688179818A819B81C552C9
:10066000D340A70196010E94910ACA01B9010E94D4
:10067000FD080E94180A20E030E040EA50E40E94A1
:10068000B10920E030EC4FE754E40E9462089B017E
:10069000AC01C75DDC4FA881B981C952D3408D92AE
:1006A0009D92AD92BC921397C55DDC4FE881F981B4
:1006B000CB52D3406083718382839383C35DDC4FCD
:1006C000A881B981CD52D3404D925D926D927C92BA
:1006D0001397C501B4010E94B1099B01AC01C3018C
:1006E000B2010E946208C15DDC4FE881F981CF52FE
:1006F000D3406083718382839383CC5CDC4F0FB6DD
:10070000F894DEBF0FBECDBFDF91CF911F910F9147
:10071000FF90EF90DF90CF90BF90AF909F908F9021
:100720007F906F905F904F903F902F9008951F9211
:100730000F920FB60F9211242F933F938F939F9395
:10074000AF93BF9380913B0190913C01A0913D01FB
:10075000B0913E0130913A0123E0230F2D3720F470
:100760000196A11DB11D05C026E8230F0296A11D0B
:10077000B11D20933A0180933B0190933C01A093DB
:100780003D01B0933E0180913F0190914001A091C5
:100790004101B09142010196A11DB11D80933F011D
:1007A00090934001A0934101B0934201BF91AF915A
:1007B0009F918F913F912F910F900FBE0F901F909F
:1007C0001895789484B5826084BD84B5816084BDB9
:1007D00085B5826085BD85B5816085BDEEE6F0E0BA
:1007E000808181608083E1E8F0E010828081826016
:1007F0008083808181608083E0E8F0E08081816097
:100800008083E1EBF0E0808184608083E0EBF0E0C6
:10081000808181608083EAE7F0E08081846080836A
:100820008081826080838081816080838081806814
:1008300080831092C1000895FC01818D228D90E08B
:10084000805C9F4F821B91098F7399270895FC014B
:10085000918D828D981731F0828DE80FF11D858D75
:1008600090E008958FEF9FEF0895FC01918D828DA8
:10087000981761F0828DDF01A80FB11D5D968C91F4
:10088000928D9F5F9F73928F90E008958FEF9FEFFF
:10089000089589EB95E0892B49F080E090E0892B61
:1008A00029F00E94B90581110C9400000895FC0103
:1008B000848DDF01A80FB11DA35ABF4F2C91848DE9
:1008C00090E001968F739927848FA689B7892C931E
:1008D000A089B1898C9180648C93938D848D9813B9
:1008E00006C00288F389E02D80818F7D8083089582
:1008F000CF93DF93EC01888D8823C9F0EA89FB89C7
:10090000808185FD05C0A889B9898C9186FD0FC0BD
:100910000FB607FCF5CF808185FFF2CFA889B98992
:100920008C9185FFEDCFCE010E945704E7CFDF9178
:10093000CF910895CF92DF92FF920F931F93CF93A1
:10094000DF931F92CDB7DEB76C0181E0D6015896D8
:100950008C9358975B969C915B975C968C915C9777
:10096000981307C05096ED91FC915197808185FDB9
:100970002EC0F601038D10E00F5F1F4F0F7311277C
:10098000F02EF601848DF81211C00FB607FCF9CFD6
:10099000D6015096ED91FC915197808185FFF1CF62
:1009A000C60169830E9457046981EBCF838DE80FEC
:1009B000F11DE35AFF4F6083D6015B960C935B9762
:1009C0005296ED91FC915397808180620CC0D601C4
:1009D0005696ED91FC91579760835096ED91FC915E
:1009E000519780818064808381E090E00F90DF9157
:1009F000CF911F910F91FF90DF90CF900895BF92FC
:100A0000CF92DF92EF92FF92CF93DF93EC016A01D6
:100A10007B01B22EE889F98982E08083411581EE5D
:100A2000580761057105A1F060E079E08DE390E081
:100A3000A70196010E946F0A21503109410951090D
:100A40005695479537952795211580E1380798F0F9
:100A5000E889F989108260E874E88EE190E0A701E6
:100A600096010E946F0A215031094109510956959A
:100A7000479537952795EC85FD853083EE85FF8575
:100A80002083188EEC89FD89B082EA89FB898081F8
:100A900080618083EA89FB89808188608083EA891C
:100AA000FB89808180688083EA89FB8980818F7DD2
:100AB0008083DF91CF91FF90EF90DF90CF90BF9038
:100AC00008951F920F920FB60F9211242F938F93B8
:100AD0009F93EF93FF93E0915301F0915401808134
:100AE000E0915901F0915A0182FD12C090818091EC
:100AF0005C018F5F8F7320915D01821751F0E0914F
:100B00005C01F0E0ED5BFE4F958F80935C0101C0CE
:100B10008081FF91EF919F918F912F910F900FBE48
:100B20000F901F9018951F920F920FB60F921124DD
:100B30002F933F934F935F936F937F938F939F93E5
:100B4000AF93BF93EF93FF9383E491E00E94570428
:100B5000FF91EF91BF91AF919F918F917F916F9195
:100B60005F914F913F912F910F900FBE0F901F906B
:100B7000189583E491E00E941C0421E0892B09F47C
:100B800020E0822F0895109246011092450188EED0
:100B900093E0A0E0B0E08093470190934801A093D8
:100BA0004901B0934A0189E091E090934401809318
:100BB000430185EC90E09093500180934F0184ECC9
:100BC00090E0909352018093510180EC90E09093DB
:100BD00054018093530181EC90E0909356018093EF
:100BE000550182EC90E0909358018093570186EC78
:100BF00090E090935A018093590110925C011092F9
:100C00005D0110925E0110925F010895CF92DF9214
:100C1000EF92FF920F931F93CF93DF937C016A01B2
:100C2000EB0100E010E00C151D0571F06991D70192
:100C3000ED91FC910190F081E02DC7010995892B80
:100C400019F00F5F1F4FEFCFC801DF91CF911F91B8
:100C50000F91FF90EF90DF90CF900895611571058F
:100C600081F0DB010D900020E9F7AD014150510901
:100C7000461B570BDC01ED91FC910280F381E02DC6
:100C8000099480E090E008950C942E06DC01ED912B
:100C9000FC910190F081E02D099465E171E00C94E4
:100CA0002E068F929F92AF92BF92DF92EF92FF92A9
:100CB0000F931F93CF93DF93CDB7DEB7A1970FB6F6
:100CC000F894DEBF0FBECDBF7C01F42FD52ECB0133
:100CD00019A2223008F42AE08E010F5D1F4F822EE8
:100CE000912CA12CB12C6F2F7D2DA50194010E9478
:100CF0006F0AF22FD32ECA01015011096A3014F481
:100D0000E0E301C0E7E3E60FD801EC93232B242BAB
:100D1000252B49F7B801C7010E942E06A1960FB6F0
:100D2000F894DEBF0FBECDBFDF91CF911F910F9121
:100D3000FF90EF90DF90BF90AF909F908F900895BD
:100D4000CF92DF92EF92FF920F931F93CF93DF9397
:100D5000EC016A017B012115310579F4E881F98103
:100D60000190F081E02D642FDF91CF911F910F91C1
:100D7000FF90EF90DF90CF9009942A303105E9F48D
:100D800077FF1AC06DE20E9446068C014427552762
:100D9000BA014C195D096E097F092AE0CE010E9453
:100DA0005106800F911FDF91CF911F910F91FF90FE
:100DB000EF90DF90CF9008952AE0B701A601CE0111
:100DC000DF91CF911F910F91FF90EF90DF90CF9027
:100DD0000C9451064F925F926F927F928F929F92E6
:100DE000AF92BF92CF92DF92EF92FF920F931F9339
:100DF000CF93DF93EC016A017B01B22E9A01AB0124
:100E0000C701B6010E94560A882319F068E171E013
:100E100027C026013701E89477F82FEF3FEF4FE71F
:100E20005FE7C301B2010E94560A81110DC02FEF86
:100E30003FEF4FE75FE7C301B2010E945E0818165B
:100E40001CF46CE171E00CC02FEF3FEF4FE75FE463
:100E5000C701B6010E94AD091816ACF460E271E05A
:100E6000CE01DF91CF911F910F91FF90EF90DF9016
:100E7000CF90BF90AF909F908F907F906F905F903A
:100E80004F900C942E062FEF3FEF4FE75FECC7011A
:100E9000B6010E945E0887FDE1CF20E030E0A901A5
:100EA000C701B6010E945E0887FF0AC06DE2CE014D
:100EB0000E9446068C01F7FAF094F7F8F09402C00D
:100EC00000E010E0A12C60E070E080E09FE3AB1454
:100ED00041F020E030E040E251E40E946208A39437
:100EE000F6CF9B01AC01C701B6010E94FA076B0166
:100EF0007C010E94CF082B013C010E94FB089B0152
:100F0000AC01C701B6010E94F9076B017C012AE020
:100F1000B301A201CE010E945106080F191FBB2088
:100F200039F064E271E0CE010E942E06080F191F0D
:100F30007B2C772041F120E030E040E251E4C70112
:100F4000B6010E94B1096B017C010E94CA084B01E5
:100F5000AA2497FCA094BA2C2AE030E0B501A401A1
:100F6000CE010E94A006080F191FC501B4010E94FE
:100F7000FD089B01AC01C701B6010E94F9076B0196
:100F80007C017A94D6CFC801DF91CF911F910F9148
:100F9000FF90EF90DF90CF90BF90AF909F908F9099
:100FA0007F906F905F904F9008950C94EA060F9396
:100FB0001F93CF93DF93EC010E94EA068C01CE01D0
:100FC0000E944D06800F911FDF91CF911F910F91CD
:100FD000089508950E94E1030E94E9070E946000BD
:100FE000C9E4D4E00E9469002097E1F30E9449041B
:100FF000F9CF5058BB27AA270ED075C166D130F063
:101000006BD120F031F49F3F11F41EF45BC10EF45C
:10101000E095E7FB51C1E92F77D180F3BA1762075A
:1010200073078407950718F071F49EF58FC10EF4CD
:10103000E0950B2EBA2FA02D0B01B90190010C01E8
:10104000CA01A0011124FF27591B99F0593F50F400
:10105000503E68F11A16F040A22F232F342F442758
:10106000585FF3CF469537952795A795F040539550
:10107000C9F77EF41F16BA0B620B730B840BBAF020
:101080009150A1F0FF0FBB1F661F771F881FC2F78B
:101090000EC0BA0F621F731F841F48F4879577959F
:1010A0006795B795F7959E3F08F0B3CF9395880F56
:1010B00008F09927EE0F979587950895D9D008F4F1
:1010C00081E008950CD00FC107D140F0FED030F080
:1010D00021F45F3F19F0F0C0511139C1F3C014D1B0
:1010E00098F39923C9F35523B1F3951B550BBB27EF
:1010F000AA2762177307840738F09F5F5F4F220F9C
:10110000331F441FAA1FA9F333D00E2E3AF0E0E894
:1011100030D091505040E695001CCAF729D0FE2FE0
:1011200027D0660F771F881FBB1F26173707480772
:10113000AB07B0E809F0BB0B802DBF01FF27935828
:101140005F4F2AF09E3F510568F0B6C000C15F3F77
:10115000ECF3983EDCF3869577956795B795F79510
:101160009F5FC9F7880F911D9695879597F9089508
:10117000E1E0660F771F881FBB1F621773078407A4
:10118000BA0720F0621B730B840BBA0BEE1F88F7B3
:10119000E095089504D06894B111D9C00895BCD0E9
:1011A00088F09F5790F0B92F9927B751A0F0D1F050
:1011B000660F771F881F991F1AF0BA95C9F712C0DA
:1011C000B13081F0C3D0B1E00895C0C0672F782F4F
:1011D0008827B85F39F0B93FCCF386957795679546
:1011E000B395D9F73EF490958095709561957F4FB2
:1011F0008F4F9F4F0895E89409C097FB3EF4909558
:101200008095709561957F4F8F4F9F4F9923A9F0DF
:10121000F92F96E9BB279395F6958795779567956E
:10122000B795F111F8CFFAF4BB0F11F460FF1BC0B2
:101230006F5F7F4F8F4F9F4F16C0882311F096E945
:1012400011C0772321F09EE8872F762F05C06623F3
:1012500071F096E8862F70E060E02AF09A95660FAC
:10126000771F881FDAF7880F9695879597F9089565
:10127000990F0008550FAA0BE0E8FEEF16161706A7
:10128000E807F907C0F012161306E407F50798F00F
:10129000621B730B840B950B39F40A2661F0232B28
:1012A000242B252B21F408950A2609F4A140A695A4
:1012B0008FEF811D811D089597F99F6780E870E089
:1012C00060E008959FEF80EC089500240A941616BC
:1012D000170618060906089500240A941216130624
:1012E000140605060895092E0394000C11F48823B2
:1012F00052F0BB0F40F4BF2B11F460FF04C06F5FCE
:101300007F4F8F4F9F4F089557FD9058440F551FA3
:1013100059F05F3F71F04795880F97FB991F61F077
:101320009F3F79F087950895121613061406551FEE
:10133000F2CF4695F1DF08C0161617061806991F5A
:10134000F1CF86957105610508940895E894BB274F
:1013500066277727CB0197F908958ADF08F48FEF86
:1013600008950BD0C0CFB1DF28F0B6DF18F0952379
:1013700009F0A2CFA7CF1124EACFC6DFA0F3959F33
:10138000D1F3950F50E0551F629FF001729FBB276C
:10139000F00DB11D639FAA27F00DB11DAA1F649F18
:1013A0006627B00DA11D661F829F2227B00DA11DCB
:1013B000621F739FB00DA11D621F839FA00D611D51
:1013C000221F749F3327A00D611D231F849F600D72
:1013D000211D822F762F6A2F11249F5750408AF0AB
:1013E000E1F088234AF0EE0FFF1FBB1F661F771F37
:1013F000881F91505040A9F79E3F510570F05CCF77
:10140000A6CF5F3FECF3983EDCF386957795679522
:10141000B795F795E7959F5FC1F7FE2B880F911D54
:101420009695879597F9089511F40EF44BCF42C025
:1014300073DFD0F39923D9F3CEF39F57550B87FF72
:1014400047D00024A0E640EA900180585695979531
:1014500028F4805C660F771F881F20F02617370757
:10146000480730F4621B730B840B202931294A2B67
:10147000A69517940794202531254A2758F7660F1B
:10148000771F881F20F026173707480730F4620BB4
:10149000730B840B200D311D411DA09581F7B901FF
:1014A000842F9158880F969587950895E1DE880BD3
:1014B000990B08959F3F31F0915020F487957795CF
:1014C0006795B795880F911D9695879597F908951B
:1014D00091505040660F771F881FD2F70895A1E200
:1014E0001A2EAA1BBB1BFD010DC0AA1FBB1FEE1F9E
:1014F000FF1FA217B307E407F50720F0A21BB30BE9
:10150000E40BF50B661F771F881F991F1A9469F764
:1015100060957095809590959B01AC01BD01CF01C0
:101520000895052E97FB1EF400940E94A80A57FD0B
:1015300007D00E946F0A07FC03D04EF40C94A80A4F
:1015400050954095309521953F4F4F4F5F4F0895EF
:1015500090958095709561957F4F8F4F9F4F08951F
:101560000E94B80A332312F48A1B9B0B0C94C90AFD
:10157000A29FB001B39FC001A39F700D811D1124D4
:10158000911DB29F700D811D1124911D08950E941F
:10159000B80AB7FF0895821B930B0895EE0FFF1F43
:0C15A0000590F491E02D0994F894FFCF21
:1015AC002020202000000000009A0406061C0435B0
:1015BC0004270478040D0A006E616E00696E6600E3
:0615CC006F7666002E00A0
:00000001FF
