:100000000C944A000C9472000C9472000C947200D0
:100010000C9472000C9472000C9472000C94720098
:100020000C9472000C9472000C9472000C94720088
:100030000C9472000C9472000C9472000C94720078
:100040000C940F050C9472000C94E5060C941707A1
:100050000C9472000C9472000C9472000C94720058
:100060000C9472000C947200072C7AA5BA6CC5909F
:10007000DA3B9365FC8BBC53F810FD3C5692834DE4
:10008000BD879D3AB63DCBC9BF5BBE73DA0FC93F92
:100090000D01470711241FBECFEFD8E0DEBFCDBF53
:1000A00011E0A0E0B1E0E0E5F9E102C005900D92B9
:1000B000A632B107D9F721E0A6E2B1E001C01D9256
:1000C000A03DB207E1F710E0C4E9D0E004C02297F8
:1000D000FE010E94A20CC039D107C9F70E946E0927
:1000E0000C94A60C0C94000026E040E855E260E079
:1000F00070E083E391E00C9483064F925F926F92DD
:100100007F928F929F92AF92BF92CF92DF92EF92A7
:10011000FF92CF93DF93CDB7DEB728970FB6F89451
:10012000DEBF0FBECDBF86E291E00E94E101698390
:100130007A838B839C8386E291E00E94E6012B0107
:100140003C0186E291E00E94EB014B015C0186E2FA
:1001500091E00E94B5046B017C0186E291E00E946F
:10016000DE046D837E838F83988722E030E04981AF
:100170005A816B817C8183E391E00E94590960E0A0
:1001800071E083E391E00E94C80722E030E0B30110
:10019000A20183E391E00E94590960E071E083E3EA
:1001A00091E00E94C80722E030E0B501A40183E39A
:1001B00091E00E94590960E071E083E391E00E94C0
:1001C000C80724E030E0B701A60183E391E00E9474
:1001D000590960E071E083E391E00E94C80722E0E2
:1001E00030E04D815E816F81788583E391E02896D0
:1001F0000FB6F894DEBF0FBECDBFDF91CF91FF9059
:10020000EF90DF90CF90BF90AF909F908F907F90B6
:100210006F905F904F900C945B0941E050E060E07C
:1002200070E086E291E00C942301EAE7F0E080813F
:1002300080688083808186608083ECE7F0E0808145
:10024000806480830895EF92FF920F931F93CF9362
:10025000DF93EC017B018A010E941501F982E8829B
:100260001B830A83DF91CF911F910F91FF90EF9035
:10027000089580917C006F70807F682B60937C0074
:1002800080917A00806480937A0080917A0084FF64
:10029000FCCF80917A00806180937A008091780011
:1002A0009091790008955F926F927F928F929F92C2
:1002B000AF92BF92CF92DF92EF92FF920F931F9374
:1002C000CF93DF93CDB7DEB7C059D1400FB6F894C6
:1002D000DEBF0FBECDBF3C01562E9E012F5F3F4FAC
:1002E000590180E991E0F9019C01119221503040BF
:1002F000E1F78E010F561E4F4501C12CD12C76011E
:10030000652DC3010E943901F401819391934F013E
:10031000AA2797FDA095BA2FC80ED91EEA1EFB1E6C
:10032000E017F10769F7C701B60128EC30E040E0BB
:1003300050E00E94410CA901F501C12CD12C76019D
:10034000A081B181A41BB50BA193B1939D010E9423
:10035000820CC60ED71EE81EF91EE017F10781F7C2
:10036000C701B60128EC30E040E050E00E94630C89
:10037000CA01B9010E948F0A0E94EA0B20E030E016
:1003800040EA50E40E94830B20E030EC4FE754E455
:100390000E94F409C057DE4F0FB6F894DEBF0FBEBF
:1003A000CDBFDF91CF911F910F91FF90EF90DF9024
:1003B000CF90BF90AF909F908F907F906F905F9005
:1003C0000895FC01608171810C945301FC016281EC
:1003D00073810C9453012F923F924F925F926F92D0
:1003E0007F928F929F92AF92BF92CF92DF92EF92C5
:1003F000FF920F931F93CF93DF93CDB7DEB7C65213
:10040000D3400FB6F894DEBF0FBECDBF8C019E0166
:100410002F563E4FCF5DDC4F39832883C152D340E6
:1004200080E991E0F9019C01119221503040E1F7FF
:10043000FE013196CD5DDC4FF983E883C352D34092
:100440009C01119221503040E1F70E9459051E0194
:100450003FED231A3CEF330A9E012F5F3F4FCE0141
:100460008F569E4F5C01412C512C3201C12CD12C56
:100470007601F8016081C801CB5DDC4F2883C5524D
:10048000D340CA5DDC4F3883C652D3400E94390145
:100490004C01F501819391935F01F8016281C801DC
:1004A0000E943901CB5DDC4F2881C552D340CA5D23
:1004B000DC4F3881C652D340F901819391939F015B
:1004C000A401662757FD6095762FC40ED51EE61E43
:1004D000F71EAA2797FDA095BA2F480E591E6A1E2F
:1004E0007B1EA214B30429F688EC882E912CA12C33
:1004F000B12CC701B601A50194010E94410C8901EC
:10050000C301B201A50194010E94410C59010E944E
:1005100059059E012F5F3F4F6901AE014F565E4F57
:10052000412C512C3201FA0120813181201B310BE9
:1005300021933193AF01F601A081B181AA19BB09C2
:10054000A193B1936F010E94820C460E571E681E44
:10055000791E4215530539F7C301B20128EC30E08A
:1005600040E050E00E94630CCA01B9010E948F0A6A
:1005700020E030E040EA50E40E94830B20E030ECC1
:100580004FE754E40E94F40920E030E040EA50E4F0
:100590000E94830B20E030EC4FE754E40E94F40902
:1005A000CA5DDC4F0FB6F894DEBF0FBECDBFDF9142
:1005B000CF911F910F91FF90EF90DF90CF90BF9060
:1005C000AF909F908F907F906F905F904F903F90F3
:1005D0002F9008952F923F924F925F926F927F9249
:1005E0008F929F92AF92BF92CF92DF92EF92FF9243
:1005F0000F931F93CF93DF93CDB7DEB7C453D34090
:100600000FB6F894DEBF0FBECDBF1C01C75DDC4F37
:1006100079836883C952D340C55DDC4F59834883D1
:10062000CB52D340C35DDC4F39832883CD52D340B6
:10063000C15DDC4F19830883CF52D3408E010F5622
:100640001E4FCD5DDC4F19830883C352D34080E930
:1006500091E0D801FC011D923197E9F70059114052
:10066000D801FC011D923197E9F79E012F5D3C4FA7
:10067000CF5DDC4F39832883C152D3409801CE012E
:100680008F569E4F3C01C12CD12C7601812C912C90
:100690005401D1016C91C101CF5CDC4F2883C1535F
:1006A000D340CE5CDC4F3883C253D3400E94390123
:1006B0002C01F301819391933F01D10112966C912A
:1006C000C1010E943901CF5CDC4F2881C153D34066
:1006D000CE5CDC4F3881C253D340F90181939193B2
:1006E0009F01A201662757FD6095762F840E951E07
:1006F000A61EB71EAA2797FDA095BA2FC80ED91E11
:10070000EA1EFB1ECF5DDC4F88819981C152D34028
:100710006816790609F0BDCF28EC422E512C612CC9
:10072000712CC501B401A30192010E94410C190171
:10073000C701B601A30192010E94410C6901CD5C81
:10074000DC4F19830883C353D340DE01AF56BE4F3D
:100750007D01CB5DDC4F188219821A821B82C55243
:10076000D340812C912C5401412C512C3201F701A2
:100770004081518142195309D7014D935D937D0109
:10078000CD5CDC4FA881B981C353D340ED91FC917E
:100790001197EC19FD09ED93FD93CD5CDC4FB98306
:1007A000A883C353D3409A01DA010E94820C860EBB
:1007B000971EA81EB91E9F01DF010E94820CCB5D0F
:1007C000DC4F088119812A813B81C552D340060F35
:1007D000171F281F391FCB5DDC4F088319832A831D
:1007E0003B83C552D3409A010E94820C460E571E8D
:1007F000681E791ECF5DDC4F08811981C152D3403C
:10080000E016F10609F0B3CF98ECC92ED12CE12CFB
:10081000F12CC301B201A70196010E94630CCA0129
:10082000B9010E948F0A20E030E040EA50E40E94C3
:10083000830B20E030EC4FE754E40E94F40920E001
:1008400030E040EA50E40E94830B20E030EC4FE7B8
:1008500054E40E94F4092B013C01C501B401A70135
:1008600096010E94630CCA01B9010E948F0A0E947E
:10087000EA0B20E030E040EA50E40E94830B20E0E5
:1008800030EC4FE754E40E94F4094B015C01CB5D6E
:10089000DC4F688179818A819B81C552D340A70151
:1008A00096010E94630CCA01B9010E948F0A0E943E
:1008B000EA0B20E030E040EA50E40E94830B20E0A5
:1008C00030EC4FE754E40E94F4099B01AC01C75D92
:1008D000DC4FA881B981C952D3408D929D92AD92CF
:1008E000BC921397C55DDC4FE881F981CB52D340B0
:1008F0006083718382839383C35DDC4FA881B98158
:10090000CD52D3404D925D926D927C921397C5016A
:10091000B4010E94830B9B01AC01C301B2010E9490
:10092000F409C15DDC4FE881F981CF52D340608387
:10093000718382839383CC5CDC4F0FB6F894DEBF67
:100940000FBECDBFDF91CF911F910F91FF90EF9020
:10095000DF90CF90BF90AF909F908F907F906F90DF
:100960005F904F903F902F9008950F931F93CF93D8
:10097000DF93CDB7DEB760970FB6F894DEBF0FBE3A
:10098000CDBF8E010F5F1F4F9E012B5F3F4FAE010A
:10099000475F5F4FBE01635F7F4F0E94EA0269813C
:1009A0007A818B819C8160960FB6F894DEBF0FBE72
:1009B000CDBFDF91CF911F910F9108950F931F939A
:1009C000CF93DF93CDB7DEB760970FB6F894DEBF55
:1009D0000FBECDBF8E010F5F1F4F9E012B5F3F4F9C
:1009E000AE01475F5F4FBE01635F7F4F0E94EA0227
:1009F00069817A818B819C810E947D092EEB3EE288
:100A000045E652E40E94830B60960FB6F894DEBF71
:100A10000FBECDBFDF91CF911F910F9108951F920F
:100A20000F920FB60F9211242F933F938F939F93A2
:100A3000AF93BF9380912B0190912C01A0912D0138
:100A4000B0912E0130912A0123E0230F2D3720F49D
:100A50000196A11DB11D05C026E8230F0296A11D18
:100A6000B11D20932A0180932B0190932C01A09318
:100A70002D01B0932E0180912F0190913001A09112
:100A80003101B09132010196A11DB11D80932F015A
:100A900090933001A0933101B0933201BF91AF9197
:100AA0009F918F913F912F910F900FBE0F901F90AC
:100AB00018952FB7F89460912B0170912C018091BB
:100AC0002D0190912E012FBF0895789484B58260F6
:100AD00084BD84B5816084BD85B5826085BD85B5E2
:100AE000816085BDEEE6F0E0808181608083E1E891
:100AF000F0E01082808182608083808181608083C9
:100B0000E0E8F0E0808181608083E1EBF0E08081CB
:100B100084608083E0EBF0E0808181608083EAE79D
:100B2000F0E0808184608083808182608083808126
:100B3000816080838081806880831092C1000895E5
:100B4000FC01818D228D90E0805C9F4F821B91097A
:100B50008F7399270895FC01918D828D981731F03C
:100B6000828DE80FF11D858D90E008958FEF9FEF46
:100B70000895FC01918D828D981761F0828DDF01BF
:100B8000A80FB11D5D968C91928D9F5F9F73928F80
:100B900090E008958FEF9FEF08958DE397E0892B04
:100BA00049F080E090E0892B29F00E943D078111F7
:100BB0000C9400000895FC01848DDF01A80FB11D85
:100BC000A35ABF4F2C91848D90E001968F73992783
:100BD000848FA689B7892C93A089B1898C91806470
:100BE0008C93938D848D981306C00288F389E02D31
:100BF00080818F7D80830895CF93DF93EC01888D72
:100C00008823C9F0EA89FB89808185FD05C0A88910
:100C1000B9898C9186FD0FC00FB607FCF5CF808196
:100C200085FFF2CFA889B9898C9185FFEDCFCE01E0
:100C30000E94DB05E7CFDF91CF910895CF92DF923D
:100C4000FF920F931F93CF93DF931F92CDB7DEB721
:100C50006C0181E0D60158968C9358975B969C91D5
:100C60005B975C968C915C97981307C05096ED91BA
:100C7000FC915197808185FD2EC0F601038D10E017
:100C80000F5F1F4F0F731127F02EF601848DF8129E
:100C900011C00FB607FCF9CFD6015096ED91FC912B
:100CA0005197808185FFF1CFC60169830E94DB05E2
:100CB0006981EBCF838DE80FF11DE35AFF4F60830D
:100CC000D6015B960C935B975296ED91FC915397EE
:100CD000808180620CC0D6015696ED91FC915797A9
:100CE00060835096ED91FC91519780818064808360
:100CF00081E090E00F90DF91CF911F910F91FF90D5
:100D0000DF90CF900895BF92CF92DF92EF92FF9243
:100D1000CF93DF93EC016A017B01B22EE889F98958
:100D200082E08083411581EE580761057105A1F0CD
:100D300060E079E08DE390E0A70196010E94410C0C
:100D40002150310941095109569547953795279505
:100D5000211580E1380798F0E889F989108260E868
:100D600074E88EE190E0A70196010E94410C2150A9
:100D70003109410951095695479537952795EC85D5
:100D8000FD853083EE85FF852083188EEC89FD89F3
:100D9000B082EA89FB89808180618083EA89FB894E
:100DA000808188608083EA89FB8980818068808374
:100DB000EA89FB8980818F7D8083DF91CF91FF90CD
:100DC000EF90DF90CF90BF9008951F920F920FB6D3
:100DD0000F9211242F938F939F93EF93FF93E091A2
:100DE0004301F09144018081E0914901F0914A0171
:100DF00082FD12C0908180914C018F5F8F73209192
:100E00004D01821751F0E0914C01F0E0ED5CFE4F96
:100E1000958F80934C0101C08081FF91EF919F914C
:100E20008F912F910F900FBE0F901F9018951F92CA
:100E30000F920FB60F9211242F933F934F935F930E
:100E40006F937F938F939F93AF93BF93EF93FF9392
:100E500083E391E00E94DB05FF91EF91BF91AF9199
:100E60009F918F917F916F915F914F913F912F91C2
:100E70000F900FBE0F901F90189583E391E00E9492
:100E8000A00521E0892B09F420E0822F089510921B
:100E900036011092350188EE93E0A0E0B0E0809337
:100EA000370190933801A0933901B0933A0189E05A
:100EB00091E0909334018093330185EC90E090931E
:100EC000400180933F0184EC90E090934201809335
:100ED000410180EC90E0909344018093430181ECC8
:100EE00090E0909346018093450182EC90E09093CE
:100EF00048018093470186EC90E090934A018093EB
:100F0000490110924C0110924D0110924E01109225
:100F10004F010895CF92DF92EF92FF920F931F93AC
:100F2000CF93DF937C016A01EB0100E010E00C1528
:100F30001D0571F06991D701ED91FC910190F0814F
:100F4000E02DC7010995892B19F00F5F1F4FEFCFD7
:100F5000C801DF91CF911F910F91FF90EF90DF902B
:100F6000CF9008956115710581F0DB010D9000208F
:100F7000E9F7AD0141505109461B570BDC01ED91DA
:100F8000FC910280F381E02D099480E090E00895C7
:100F90000C94B207DC01ED91FC910190F081E02D01
:100FA000099465E171E00C94B2078F929F92AF9221
:100FB000BF92DF92EF92FF920F931F93CF93DF9335
:100FC000CDB7DEB7A1970FB6F894DEBF0FBECDBF89
:100FD0007C01F42FD52ECB0119A2223008F42AE08F
:100FE0008E010F5D1F4F822E912CA12CB12C6F2FE3
:100FF0007D2DA50194010E94410CF22FD32ECA0130
:10100000015011096A3014F4E0E301C0E7E3E60F90
:10101000D801EC93232B242B252B49F7B801C701CA
:101020000E94B207A1960FB6F894DEBF0FBECDBFE7
:10103000DF91CF911F910F91FF90EF90DF90BF90C4
:10104000AF909F908F900895CF92DF92EF92FF9292
:101050000F931F93CF93DF93EC016A017B0121155E
:10106000310579F4E881F9810190F081E02D642F58
:10107000DF91CF911F910F91FF90EF90DF90CF9074
:1010800009942A303105E9F477FF1AC06DE20E9415
:10109000CA078C0144275527BA014C195D096E090E
:1010A0007F092AE0CE010E94D507800F911FDF91B2
:1010B000CF911F910F91FF90EF90DF90CF90089507
:1010C0002AE0B701A601CE01DF91CF911F910F91C8
:1010D000FF90EF90DF90CF900C94D5074F925F92E6
:1010E0006F927F928F929F92AF92BF92CF92DF9238
:1010F000EF92FF920F931F93CF93DF93EC016A015E
:101100007B01B22E9A01AB01C701B6010E94280CE7
:10111000882319F068E171E027C026013701E894BF
:1011200077F82FEF3FEF4FE75FE7C301B2010E946F
:10113000280C81110DC02FEF3FEF4FE75FE7C30190
:10114000B2010E94F00918161CF46CE171E00CC0A9
:101150002FEF3FEF4FE75FE4C701B6010E947F0B1F
:101160001816ACF460E271E0CE01DF91CF911F91CF
:101170000F91FF90EF90DF90CF90BF90AF909F9036
:101180008F907F906F905F904F900C94B2072FEFED
:101190003FEF4FE75FECC701B6010E94F00987FD02
:1011A000E1CF20E030E0A901C701B6010E94F009BB
:1011B00087FF0AC06DE2CE010E94CA078C01F7FAD0
:1011C000F094F7F8F09402C000E010E0A12C60E089
:1011D00070E080E09FE3AB1441F020E030E040E2BB
:1011E00051E40E94F409A394F6CF9B01AC01C7011E
:1011F000B6010E948C096B017C010E94610A2B01DF
:101200003C010E948D0A9B01AC01C701B6010E94FE
:101210008B096B017C012AE0B301A201CE010E947F
:10122000D507080F191FBB2039F064E271E0CE0129
:101230000E94B207080F191F7B2C772041F120E094
:1012400030E040E251E4C701B6010E94830B6B011C
:101250007C010E945C0A4B01AA2497FCA094BA2C42
:101260002AE030E0B501A401CE010E942408080F55
:10127000191FC501B4010E948F0A9B01AC01C7016F
:10128000B6010E948B096B017C017A94D6CFC8010C
:10129000DF91CF911F910F91FF90EF90DF90CF9052
:1012A000BF90AF909F908F907F906F905F904F9086
:1012B00008950C946E080F931F93CF93DF93EC0166
:1012C0000E946E088C01CE010E94D107800F911FF1
:1012D000DF91CF911F910F91089508950E946505A8
:1012E0000E946D090E947400CDECD5E00E947D0043
:1012F0002097E1F30E94CD05F9CF9F939F774AD1C4
:101300000F9000203AF49058A2EA2AED3FE049E419
:1013100050E413D0BAC15058BB27AA270ED0B5C18C
:10132000A6D130F0ABD120F031F49F3F11F41EF480
:1013300076C10EF4E095E7FB6CC1E92FB7D180F3DD
:10134000BA17620773078407950718F071F49EF5C2
:10135000CFC10EF4E0950B2EBA2FA02D0B01B901D1
:1013600090010C01CA01A0011124FF27591B99F01B
:10137000593F50F4503E68F11A16F040A22F232F27
:10138000342F4427585FF3CF469537952795A79577
:10139000F0405395C9F77EF41F16BA0B620B730B1E
:1013A000840BBAF09150A1F0FF0FBB1F661F771F8F
:1013B000881FC2F70EC0BA0F621F731F841F48F444
:1013C000879577956795B795F7959E3F08F0B3CFCA
:1013D0009395880F08F09927EE0F979587950895B4
:1013E000F4D008F481E008950CD04FC147D140F00B
:1013F0003ED130F021F45F3F19F00BC1511179C19A
:101400000EC154D198F39923C9F35523B1F3951B19
:10141000550BBB27AA2762177307840738F09F5F15
:101420005F4F220F331F441FAA1FA9F333D00E2E84
:101430003AF0E0E830D091505040E695001CCAF7F1
:1014400029D0FE2F27D0660F771F881FBB1F2617B6
:1014500037074807AB07B0E809F0BB0B802DBF0189
:10146000FF2793585F4F2AF09E3F510568F0D1C087
:1014700040C15F3FECF3983EDCF386957795679526
:10148000B795F7959F5FC9F7880F911D969587953A
:1014900097F90895E1E0660F771F881FBB1F621759
:1014A00073078407BA0720F0621B730B840BBA0B17
:1014B000EE1F88F7E095089504D06894B11119C122
:1014C0000895FCD088F09F5790F0B92F9927B75115
:1014D000A0F0D1F0660F771F881F991F1AF0BA95F8
:1014E000C9F712C0B13081F003D1B1E0089500C155
:1014F000672F782F8827B85F39F0B93FCCF38695EE
:1015000077956795B395D9F73EF49095809570954A
:1015100061957F4F8F4F9F4F0895E89409C097FBC7
:101520003EF490958095709561957F4F8F4F9F4FBA
:101530009923A9F0F92F96E9BB279395F6958795FE
:1015400077956795B795F111F8CFFAF4BB0F11F4C1
:1015500060FF1BC06F5F7F4F8F4F9F4F16C0882368
:1015600011F096E911C0772321F09EE8872F762F9E
:1015700005C0662371F096E8862F70E060E02AF0DF
:101580009A95660F771F881FDAF7880F96958795CB
:1015900097F90895DF93CF931F930F938B01EC017D
:1015A000E8E6F0E03FD071D09801AE018B01EC018C
:1015B00060E070E080E89FE3AEDE0CD19801AE0100
:1015C0000F911F91CF91DF91AAC0990F0008550F7D
:1015D000AA0BE0E8FEEF16161706E807F907C0F0B9
:1015E00012161306E407F50798F0621B730B840BC1
:1015F000950B39F40A2661F0232B242B252B21F49B
:1016000008950A2609F4A140A6958FEF811D811D3A
:10161000089597F99F6780E870E060E008959FEF74
:1016200080EC0895DF93CF931F930F93FF92EF9277
:10163000DF927B018C01689405C0DA2EEF016FD038
:10164000FE01E894A5912591359145915591AEF310
:10165000EF0173DEFE019701A801DA9479F7DF90BC
:10166000EF90FF900F911F91CF91DF91089500248B
:101670000A941616170618060906089500240A94F7
:1016800012161306140605060895092E0394000C7D
:1016900011F4882352F0BB0F40F4BF2B11F460FF0C
:1016A00004C06F5F7F4F8F4F9F4F089557FD905835
:1016B000440F551F59F05F3F71F04795880F97FB16
:1016C000991F61F09F3F79F08795089512161306D0
:1016D0001406551FF2CF4695F1DF08C016161706FF
:1016E0001806991FF1CF8695710561050894089534
:1016F000E894BB2766277727CB0197F9089565DF24
:1017000008F48FEF08950BD0C0CFB1DF28F0B6DF1B
:1017100018F0952309F07DCF82CF1124EACFC6DFE0
:10172000A0F3959FD1F3950F50E0551F629FF001F4
:10173000729FBB27F00DB11D639FAA27F00DB11D4D
:10174000AA1F649F6627B00DA11D661F829F2227D6
:10175000B00DA11D621F739FB00DA11D621F839F5D
:10176000A00D611D221F749F3327A00D611D231F33
:10177000849F600D211D822F762F6A2F11249F5781
:1017800050408AF0E1F088234AF0EE0FFF1FBB1FA4
:10179000661F771F881F91505040A9F79E3F510543
:1017A00070F037CFA6CF5F3FECF3983EDCF3869521
:1017B00077956795B795F795E7959F5FC1F7FE2BEE
:1017C000880F911D9695879597F9089511F40EF459
:1017D00026CF42C073DFD0F39923D9F3CEF39F57BE
:1017E000550B87FF47D00024A0E640EA90018058BF
:1017F0005695979528F4805C660F771F881F20F018
:1018000026173707480730F4621B730B840B202917
:1018100031294A2BA69517940794202531254A276C
:1018200058F7660F771F881F20F0261737074807DD
:1018300030F4620B730B840B200D311D411DA095FC
:1018400081F7B901842F9158880F9695879508954F
:10185000BCDE880B990B08959F3F31F0915020F426
:10186000879577956795B795880F911D969587957C
:1018700097F9089591505040660F771F881FD2F74F
:101880000895A1E21A2EAA1BBB1BFD010DC0AA1FC1
:10189000BB1FEE1FFF1FA217B307E407F50720F0D9
:1018A000A21BB30BE40BF50B661F771F881F991F54
:1018B0001A9469F760957095809590959B01AC019D
:1018C000BD01CF010895052E97FB1EF400940E94E0
:1018D0007A0C57FD07D00E94410C07FC03D04EF450
:1018E0000C947A0C50954095309521953F4F4F4F71
:1018F0005F4F089590958095709561957F4F8F4FBC
:101900009F4F08950E948A0C332312F48A1B9B0B6D
:101910000C949B0CA29FB001B39FC001A39F700DBC
:10192000811D1124911DB29F700D811D1124911DE7
:1019300008950E948A0CB7FF0895821B930B0895A7
:10194000EE0FFF1F0590F491E02D0994F894FFCF5E
:101950002020202000000000001E068A07A005B9F4
:1019600005AB05FC050D0A006E616E00696E660030
:061970006F7666002E00F8
:00000001FF
